{
  "contractName": "HalvingLottery",
  "abi": [
    {
      "inputs": [],
      "stateMutability": "nonpayable",
      "type": "constructor"
    },
    {
      "inputs": [
        {
          "internalType": "address",
          "name": "sender",
          "type": "address"
        },
        {
          "internalType": "uint256",
          "name": "tokenId",
          "type": "uint256"
        },
        {
          "internalType": "address",
          "name": "owner",
          "type": "address"
        }
      ],
      "name": "ERC721IncorrectOwner",
      "type": "error"
    },
    {
      "inputs": [
        {
          "internalType": "address",
          "name": "operator",
          "type": "address"
        },
        {
          "internalType": "uint256",
          "name": "tokenId",
          "type": "uint256"
        }
      ],
      "name": "ERC721InsufficientApproval",
      "type": "error"
    },
    {
      "inputs": [
        {
          "internalType": "address",
          "name": "approver",
          "type": "address"
        }
      ],
      "name": "ERC721InvalidApprover",
      "type": "error"
    },
    {
      "inputs": [
        {
          "internalType": "address",
          "name": "operator",
          "type": "address"
        }
      ],
      "name": "ERC721InvalidOperator",
      "type": "error"
    },
    {
      "inputs": [
        {
          "internalType": "address",
          "name": "owner",
          "type": "address"
        }
      ],
      "name": "ERC721InvalidOwner",
      "type": "error"
    },
    {
      "inputs": [
        {
          "internalType": "address",
          "name": "receiver",
          "type": "address"
        }
      ],
      "name": "ERC721InvalidReceiver",
      "type": "error"
    },
    {
      "inputs": [
        {
          "internalType": "address",
          "name": "sender",
          "type": "address"
        }
      ],
      "name": "ERC721InvalidSender",
      "type": "error"
    },
    {
      "inputs": [
        {
          "internalType": "uint256",
          "name": "tokenId",
          "type": "uint256"
        }
      ],
      "name": "ERC721NonexistentToken",
      "type": "error"
    },
    {
      "inputs": [
        {
          "internalType": "address",
          "name": "owner",
          "type": "address"
        }
      ],
      "name": "OwnableInvalidOwner",
      "type": "error"
    },
    {
      "inputs": [
        {
          "internalType": "address",
          "name": "account",
          "type": "address"
        }
      ],
      "name": "OwnableUnauthorizedAccount",
      "type": "error"
    },
    {
      "anonymous": false,
      "inputs": [
        {
          "indexed": true,
          "internalType": "address",
          "name": "owner",
          "type": "address"
        },
        {
          "indexed": true,
          "internalType": "address",
          "name": "approved",
          "type": "address"
        },
        {
          "indexed": true,
          "internalType": "uint256",
          "name": "tokenId",
          "type": "uint256"
        }
      ],
      "name": "Approval",
      "type": "event"
    },
    {
      "anonymous": false,
      "inputs": [
        {
          "indexed": true,
          "internalType": "address",
          "name": "owner",
          "type": "address"
        },
        {
          "indexed": true,
          "internalType": "address",
          "name": "operator",
          "type": "address"
        },
        {
          "indexed": false,
          "internalType": "bool",
          "name": "approved",
          "type": "bool"
        }
      ],
      "name": "ApprovalForAll",
      "type": "event"
    },
    {
      "anonymous": false,
      "inputs": [
        {
          "indexed": false,
          "internalType": "uint256",
          "name": "_fromTokenId",
          "type": "uint256"
        },
        {
          "indexed": false,
          "internalType": "uint256",
          "name": "_toTokenId",
          "type": "uint256"
        }
      ],
      "name": "BatchMetadataUpdate",
      "type": "event"
    },
    {
      "anonymous": false,
      "inputs": [
        {
          "indexed": false,
          "internalType": "uint256",
          "name": "_tokenId",
          "type": "uint256"
        }
      ],
      "name": "MetadataUpdate",
      "type": "event"
    },
    {
      "anonymous": false,
      "inputs": [
        {
          "indexed": true,
          "internalType": "address",
          "name": "previousOwner",
          "type": "address"
        },
        {
          "indexed": true,
          "internalType": "address",
          "name": "newOwner",
          "type": "address"
        }
      ],
      "name": "OwnershipTransferred",
      "type": "event"
    },
    {
      "anonymous": false,
      "inputs": [
        {
          "indexed": true,
          "internalType": "address",
          "name": "from",
          "type": "address"
        },
        {
          "indexed": true,
          "internalType": "address",
          "name": "to",
          "type": "address"
        },
        {
          "indexed": true,
          "internalType": "uint256",
          "name": "tokenId",
          "type": "uint256"
        }
      ],
      "name": "Transfer",
      "type": "event"
    },
    {
      "inputs": [
        {
          "internalType": "address",
          "name": "to",
          "type": "address"
        },
        {
          "internalType": "uint256",
          "name": "tokenId",
          "type": "uint256"
        }
      ],
      "name": "approve",
      "outputs": [],
      "stateMutability": "nonpayable",
      "type": "function"
    },
    {
      "inputs": [
        {
          "internalType": "address",
          "name": "owner",
          "type": "address"
        }
      ],
      "name": "balanceOf",
      "outputs": [
        {
          "internalType": "uint256",
          "name": "",
          "type": "uint256"
        }
      ],
      "stateMutability": "view",
      "type": "function"
    },
    {
      "inputs": [
        {
          "internalType": "uint256",
          "name": "tokenId",
          "type": "uint256"
        }
      ],
      "name": "getApproved",
      "outputs": [
        {
          "internalType": "address",
          "name": "",
          "type": "address"
        }
      ],
      "stateMutability": "view",
      "type": "function"
    },
    {
      "inputs": [
        {
          "internalType": "address",
          "name": "owner",
          "type": "address"
        },
        {
          "internalType": "address",
          "name": "operator",
          "type": "address"
        }
      ],
      "name": "isApprovedForAll",
      "outputs": [
        {
          "internalType": "bool",
          "name": "",
          "type": "bool"
        }
      ],
      "stateMutability": "view",
      "type": "function"
    },
    {
      "inputs": [],
      "name": "name",
      "outputs": [
        {
          "internalType": "string",
          "name": "",
          "type": "string"
        }
      ],
      "stateMutability": "view",
      "type": "function"
    },
    {
      "inputs": [],
      "name": "owner",
      "outputs": [
        {
          "internalType": "address",
          "name": "",
          "type": "address"
        }
      ],
      "stateMutability": "view",
      "type": "function"
    },
    {
      "inputs": [
        {
          "internalType": "uint256",
          "name": "tokenId",
          "type": "uint256"
        }
      ],
      "name": "ownerOf",
      "outputs": [
        {
          "internalType": "address",
          "name": "",
          "type": "address"
        }
      ],
      "stateMutability": "view",
      "type": "function"
    },
    {
      "inputs": [],
      "name": "pause",
      "outputs": [
        {
          "internalType": "bool",
          "name": "",
          "type": "bool"
        }
      ],
      "stateMutability": "view",
      "type": "function"
    },
    {
      "inputs": [],
      "name": "renounceOwnership",
      "outputs": [],
      "stateMutability": "nonpayable",
      "type": "function"
    },
    {
      "inputs": [
        {
          "internalType": "address",
          "name": "from",
          "type": "address"
        },
        {
          "internalType": "address",
          "name": "to",
          "type": "address"
        },
        {
          "internalType": "uint256",
          "name": "tokenId",
          "type": "uint256"
        }
      ],
      "name": "safeTransferFrom",
      "outputs": [],
      "stateMutability": "nonpayable",
      "type": "function"
    },
    {
      "inputs": [
        {
          "internalType": "address",
          "name": "from",
          "type": "address"
        },
        {
          "internalType": "address",
          "name": "to",
          "type": "address"
        },
        {
          "internalType": "uint256",
          "name": "tokenId",
          "type": "uint256"
        },
        {
          "internalType": "bytes",
          "name": "data",
          "type": "bytes"
        }
      ],
      "name": "safeTransferFrom",
      "outputs": [],
      "stateMutability": "nonpayable",
      "type": "function"
    },
    {
      "inputs": [
        {
          "internalType": "address",
          "name": "operator",
          "type": "address"
        },
        {
          "internalType": "bool",
          "name": "approved",
          "type": "bool"
        }
      ],
      "name": "setApprovalForAll",
      "outputs": [],
      "stateMutability": "nonpayable",
      "type": "function"
    },
    {
      "inputs": [
        {
          "internalType": "bytes4",
          "name": "interfaceId",
          "type": "bytes4"
        }
      ],
      "name": "supportsInterface",
      "outputs": [
        {
          "internalType": "bool",
          "name": "",
          "type": "bool"
        }
      ],
      "stateMutability": "view",
      "type": "function"
    },
    {
      "inputs": [],
      "name": "symbol",
      "outputs": [
        {
          "internalType": "string",
          "name": "",
          "type": "string"
        }
      ],
      "stateMutability": "view",
      "type": "function"
    },
    {
      "inputs": [
        {
          "internalType": "uint256",
          "name": "tokenId",
          "type": "uint256"
        }
      ],
      "name": "tokenURI",
      "outputs": [
        {
          "internalType": "string",
          "name": "",
          "type": "string"
        }
      ],
      "stateMutability": "view",
      "type": "function"
    },
    {
      "inputs": [],
      "name": "totalMinted",
      "outputs": [
        {
          "internalType": "uint256",
          "name": "",
          "type": "uint256"
        }
      ],
      "stateMutability": "view",
      "type": "function"
    },
    {
      "inputs": [
        {
          "internalType": "address",
          "name": "from",
          "type": "address"
        },
        {
          "internalType": "address",
          "name": "to",
          "type": "address"
        },
        {
          "internalType": "uint256",
          "name": "tokenId",
          "type": "uint256"
        }
      ],
      "name": "transferFrom",
      "outputs": [],
      "stateMutability": "nonpayable",
      "type": "function"
    },
    {
      "inputs": [
        {
          "internalType": "address",
          "name": "newOwner",
          "type": "address"
        }
      ],
      "name": "transferOwnership",
      "outputs": [],
      "stateMutability": "nonpayable",
      "type": "function"
    },
    {
      "inputs": [],
      "name": "Pause",
      "outputs": [],
      "stateMutability": "nonpayable",
      "type": "function"
    },
    {
      "inputs": [],
      "name": "unpause",
      "outputs": [],
      "stateMutability": "nonpayable",
      "type": "function"
    },
    {
      "inputs": [
        {
          "internalType": "address",
          "name": "_address",
          "type": "address"
        }
      ],
      "name": "whitelistAddress",
      "outputs": [],
      "stateMutability": "nonpayable",
      "type": "function"
    },
    {
      "inputs": [
        {
          "internalType": "address",
          "name": "_address",
          "type": "address"
        }
      ],
      "name": "removeFromWhitelist",
      "outputs": [],
      "stateMutability": "nonpayable",
      "type": "function"
    },
    {
      "inputs": [
        {
          "internalType": "address",
          "name": "to",
          "type": "address"
        },
        {
          "internalType": "uint256",
          "name": "numberOfTokens",
          "type": "uint256"
        },
        {
          "internalType": "string[]",
          "name": "uri",
          "type": "string[]"
        }
      ],
      "name": "mint",
      "outputs": [],
      "stateMutability": "nonpayable",
      "type": "function"
    }
  ],
  "bytecode": "0x608060405234801562000010575f80fd5b50336040518060400160405280600c81526020017f48616c76696e67205061737300000000000000000000000000000000000000008152506040518060400160405280600281526020017f4850000000000000000000000000000000000000000000000000000000000000815250815f90816200008e919062000455565b508060019081620000a0919062000455565b5050505f73ffffffffffffffffffffffffffffffffffffffff168173ffffffffffffffffffffffffffffffffffffffff160362000116575f6040517f1e4fbdf70000000000000000000000000000000000000000000000000000000081526004016200010d91906200057c565b60405180910390fd5b62000127816200012e60201b60201c565b5062000597565b5f60075f9054906101000a900473ffffffffffffffffffffffffffffffffffffffff1690508160075f6101000a81548173ffffffffffffffffffffffffffffffffffffffff021916908373ffffffffffffffffffffffffffffffffffffffff1602179055508173ffffffffffffffffffffffffffffffffffffffff168173ffffffffffffffffffffffffffffffffffffffff167f8be0079c531659141344cd1fd0a4f28419497f9722a3daafe3b4186f6b6457e060405160405180910390a35050565b5f81519050919050565b7f4e487b71000000000000000000000000000000000000000000000000000000005f52604160045260245ffd5b7f4e487b71000000000000000000000000000000000000000000000000000000005f52602260045260245ffd5b5f60028204905060018216806200026d57607f821691505b60208210810362000283576200028262000228565b5b50919050565b5f819050815f5260205f209050919050565b5f6020601f8301049050919050565b5f82821b905092915050565b5f60088302620002e77fffffffffffffffffffffffffffffffffffffffffffffffffffffffffffffffff82620002aa565b620002f38683620002aa565b95508019841693508086168417925050509392505050565b5f819050919050565b5f819050919050565b5f6200033d6200033762000331846200030b565b62000314565b6200030b565b9050919050565b5f819050919050565b62000358836200031d565b62000370620003678262000344565b848454620002b6565b825550505050565b5f90565b6200038662000378565b620003938184846200034d565b505050565b5b81811015620003ba57620003ae5f826200037c565b60018101905062000399565b5050565b601f8211156200040957620003d38162000289565b620003de846200029b565b81016020851015620003ee578190505b62000406620003fd856200029b565b83018262000398565b50505b505050565b5f82821c905092915050565b5f6200042b5f19846008026200040e565b1980831691505092915050565b5f6200044583836200041a565b9150826002028217905092915050565b6200046082620001f1565b67ffffffffffffffff8111156200047c576200047b620001fb565b5b62000488825462000255565b62000495828285620003be565b5f60209050601f831160018114620004cb575f8415620004b6578287015190505b620004c2858262000438565b86555062000531565b601f198416620004db8662000289565b5f5b828110156200050457848901518255600182019150602085019450602081019050620004dd565b8683101562000524578489015162000520601f8916826200041a565b8355505b6001600288020188555050505b505050505050565b5f73ffffffffffffffffffffffffffffffffffffffff82169050919050565b5f620005648262000539565b9050919050565b620005768162000558565b82525050565b5f602082019050620005915f8301846200056b565b92915050565b612b6a80620005a55f395ff3fe608060405234801561000f575f80fd5b506004361061014b575f3560e01c806370a08231116100c1578063a22cb4651161007a578063a22cb4651461034d578063a2309ff814610369578063b88d4fde14610387578063c87b56dd146103a3578063e985e9c5146103d3578063f2fde38b146104035761014b565b806370a082311461029d578063715018a6146102cd5780638456cb59146102d75780638ab1d681146102f55780638da5cb5b1461031157806395d89b411461032f5761014b565b806323b872dd1161011357806323b872dd146102055780633f4ba83a14610221578063415665851461022b57806342842e0e146102475780636352211e146102635780636985a022146102935761014b565b806301ffc9a71461014f57806306fdde031461017f578063081812fc1461019d578063095ea7b3146101cd57806322df11d8146101e9575b5f80fd5b61016960048036038101906101649190611d97565b61041f565b6040516101769190611ddc565b60405180910390f35b61018761047f565b6040516101949190611e7f565b60405180910390f35b6101b760048036038101906101b29190611ed2565b61050e565b6040516101c49190611f3c565b60405180910390f35b6101e760048036038101906101e29190611f7f565b610529565b005b61020360048036038101906101fe91906121cb565b61053f565b005b61021f600480360381019061021a9190612237565b610722565b005b610229610821565b005b61024560048036038101906102409190612287565b610844565b005b610261600480360381019061025c9190612237565b6108a4565b005b61027d60048036038101906102789190611ed2565b6108c3565b60405161028a9190611f3c565b60405180910390f35b61029b6108d4565b005b6102b760048036038101906102b29190612287565b6108f8565b6040516102c491906122c1565b60405180910390f35b6102d56109ae565b005b6102df6109c1565b6040516102ec9190611ddc565b60405180910390f35b61030f600480360381019061030a9190612287565b6109d3565b005b610319610a32565b6040516103269190611f3c565b60405180910390f35b610337610a5a565b6040516103449190611e7f565b60405180910390f35b61036760048036038101906103629190612304565b610aea565b005b610371610b00565b60405161037e91906122c1565b60405180910390f35b6103a1600480360381019061039c91906123e0565b610b06565b005b6103bd60048036038101906103b89190611ed2565b610b23565b6040516103ca9190611e7f565b60405180910390f35b6103ed60048036038101906103e89190612460565b610c2e565b6040516103fa9190611ddc565b60405180910390f35b61041d60048036038101906104189190612287565b610cbc565b005b5f634906490660e01b7bffffffffffffffffffffffffffffffffffffffffffffffffffffffff1916827bffffffffffffffffffffffffffffffffffffffffffffffffffffffff19161480610478575061047782610d40565b5b9050919050565b60605f805461048d906124cb565b80601f01602080910402602001604051908101604052809291908181526020018280546104b9906124cb565b80156105045780601f106104db57610100808354040283529160200191610504565b820191905f5260205f20905b8154815290600101906020018083116104e757829003601f168201915b5050505050905090565b5f61051882610e21565b5061052282610ea7565b9050919050565b61053b8282610536610ee0565b610ee7565b5050565b60095f9054906101000a900460ff161561058e576040517f08c379a000000000000000000000000000000000000000000000000000000000815260040161058590612545565b60405180910390fd5b600a5f3373ffffffffffffffffffffffffffffffffffffffff1673ffffffffffffffffffffffffffffffffffffffff1681526020019081526020015f205f9054906101000a900460ff168061061557506105e6610a32565b73ffffffffffffffffffffffffffffffffffffffff163373ffffffffffffffffffffffffffffffffffffffff16145b610654576040517f08c379a000000000000000000000000000000000000000000000000000000000815260040161064b906125ad565b60405180910390fd5b62030d408260085461066691906125f8565b11156106a7576040517f08c379a000000000000000000000000000000000000000000000000000000000815260040161069e90612675565b60405180910390fd5b5f5b8281101561071c575f60016008546106c191906125f8565b90506106cd8582610ef9565b6106f1818484815181106106e4576106e3612693565b5b6020026020010151610fec565b60085f815480929190610703906126c0565b9190505550508080610714906126c0565b9150506106a9565b50505050565b5f73ffffffffffffffffffffffffffffffffffffffff168273ffffffffffffffffffffffffffffffffffffffff1603610792575f6040517f64a0ae920000000000000000000000000000000000000000000000000000000081526004016107899190611f3c565b60405180910390fd5b5f6107a583836107a0610ee0565b611046565b90508373ffffffffffffffffffffffffffffffffffffffff168173ffffffffffffffffffffffffffffffffffffffff161461081b578382826040517f64283d7b00000000000000000000000000000000000000000000000000000000815260040161081293929190612707565b60405180910390fd5b50505050565b610829611251565b5f60095f6101000a81548160ff021916908315150217905550565b61084c611251565b6001600a5f8373ffffffffffffffffffffffffffffffffffffffff1673ffffffffffffffffffffffffffffffffffffffff1681526020019081526020015f205f6101000a81548160ff02191690831515021790555050565b6108be83838360405180602001604052805f815250610b06565b505050565b5f6108cd82610e21565b9050919050565b6108dc611251565b600160095f6101000a81548160ff021916908315150217905550565b5f8073ffffffffffffffffffffffffffffffffffffffff168273ffffffffffffffffffffffffffffffffffffffff1603610969575f6040517f89c62b640000000000000000000000000000000000000000000000000000000081526004016109609190611f3c565b60405180910390fd5b60035f8373ffffffffffffffffffffffffffffffffffffffff1673ffffffffffffffffffffffffffffffffffffffff1681526020019081526020015f20549050919050565b6109b6611251565b6109bf5f6112d8565b565b60095f9054906101000a900460ff1681565b6109db611251565b5f600a5f8373ffffffffffffffffffffffffffffffffffffffff1673ffffffffffffffffffffffffffffffffffffffff1681526020019081526020015f205f6101000a81548160ff02191690831515021790555050565b5f60075f9054906101000a900473ffffffffffffffffffffffffffffffffffffffff16905090565b606060018054610a69906124cb565b80601f0160208091040260200160405190810160405280929190818152602001828054610a95906124cb565b8015610ae05780601f10610ab757610100808354040283529160200191610ae0565b820191905f5260205f20905b815481529060010190602001808311610ac357829003601f168201915b5050505050905090565b610afc610af5610ee0565b838361139b565b5050565b60085481565b610b11848484610722565b610b1d84848484611504565b50505050565b6060610b2e82610e21565b505f60065f8481526020019081526020015f208054610b4c906124cb565b80601f0160208091040260200160405190810160405280929190818152602001828054610b78906124cb565b8015610bc35780601f10610b9a57610100808354040283529160200191610bc3565b820191905f5260205f20905b815481529060010190602001808311610ba657829003601f168201915b505050505090505f610bd36116b6565b90505f815103610be7578192505050610c29565b5f82511115610c1b578082604051602001610c03929190612776565b60405160208183030381529060405292505050610c29565b610c24846116cc565b925050505b919050565b5f60055f8473ffffffffffffffffffffffffffffffffffffffff1673ffffffffffffffffffffffffffffffffffffffff1681526020019081526020015f205f8373ffffffffffffffffffffffffffffffffffffffff1673ffffffffffffffffffffffffffffffffffffffff1681526020019081526020015f205f9054906101000a900460ff16905092915050565b610cc4611251565b5f73ffffffffffffffffffffffffffffffffffffffff168173ffffffffffffffffffffffffffffffffffffffff1603610d34575f6040517f1e4fbdf7000000000000000000000000000000000000000000000000000000008152600401610d2b9190611f3c565b60405180910390fd5b610d3d816112d8565b50565b5f7f80ac58cd000000000000000000000000000000000000000000000000000000007bffffffffffffffffffffffffffffffffffffffffffffffffffffffff1916827bffffffffffffffffffffffffffffffffffffffffffffffffffffffff19161480610e0a57507f5b5e139f000000000000000000000000000000000000000000000000000000007bffffffffffffffffffffffffffffffffffffffffffffffffffffffff1916827bffffffffffffffffffffffffffffffffffffffffffffffffffffffff1916145b80610e1a5750610e1982611732565b5b9050919050565b5f80610e2c8361179b565b90505f73ffffffffffffffffffffffffffffffffffffffff168173ffffffffffffffffffffffffffffffffffffffff1603610e9e57826040517f7e273289000000000000000000000000000000000000000000000000000000008152600401610e9591906122c1565b60405180910390fd5b80915050919050565b5f60045f8381526020019081526020015f205f9054906101000a900473ffffffffffffffffffffffffffffffffffffffff169050919050565b5f33905090565b610ef483838360016117d4565b505050565b5f73ffffffffffffffffffffffffffffffffffffffff168273ffffffffffffffffffffffffffffffffffffffff1603610f69575f6040517f64a0ae92000000000000000000000000000000000000000000000000000000008152600401610f609190611f3c565b60405180910390fd5b5f610f7583835f611046565b90505f73ffffffffffffffffffffffffffffffffffffffff168173ffffffffffffffffffffffffffffffffffffffff1614610fe7575f6040517f73c6ac6e000000000000000000000000000000000000000000000000000000008152600401610fde9190611f3c565b60405180910390fd5b505050565b8060065f8481526020019081526020015f20908161100a9190612936565b507ff8e1a15aba9398e019f0b49df1a4fde98ee17ae345cb5f6b5e2c27f5033e8ce78260405161103a91906122c1565b60405180910390a15050565b5f806110518461179b565b90505f73ffffffffffffffffffffffffffffffffffffffff168373ffffffffffffffffffffffffffffffffffffffff161461109257611091818486611993565b5b5f73ffffffffffffffffffffffffffffffffffffffff168173ffffffffffffffffffffffffffffffffffffffff161461111d576110d15f855f806117d4565b600160035f8373ffffffffffffffffffffffffffffffffffffffff1673ffffffffffffffffffffffffffffffffffffffff1681526020019081526020015f205f82825403925050819055505b5f73ffffffffffffffffffffffffffffffffffffffff168573ffffffffffffffffffffffffffffffffffffffff161461119c57600160035f8773ffffffffffffffffffffffffffffffffffffffff1673ffffffffffffffffffffffffffffffffffffffff1681526020019081526020015f205f82825401925050819055505b8460025f8681526020019081526020015f205f6101000a81548173ffffffffffffffffffffffffffffffffffffffff021916908373ffffffffffffffffffffffffffffffffffffffff160217905550838573ffffffffffffffffffffffffffffffffffffffff168273ffffffffffffffffffffffffffffffffffffffff167fddf252ad1be2c89b69c2b068fc378daa952ba7f163c4a11628f55a4df523b3ef60405160405180910390a4809150509392505050565b611259610ee0565b73ffffffffffffffffffffffffffffffffffffffff16611277610a32565b73ffffffffffffffffffffffffffffffffffffffff16146112d65761129a610ee0565b6040517f118cdaa70000000000000000000000000000000000000000000000000000000081526004016112cd9190611f3c565b60405180910390fd5b565b5f60075f9054906101000a900473ffffffffffffffffffffffffffffffffffffffff1690508160075f6101000a81548173ffffffffffffffffffffffffffffffffffffffff021916908373ffffffffffffffffffffffffffffffffffffffff1602179055508173ffffffffffffffffffffffffffffffffffffffff168173ffffffffffffffffffffffffffffffffffffffff167f8be0079c531659141344cd1fd0a4f28419497f9722a3daafe3b4186f6b6457e060405160405180910390a35050565b5f73ffffffffffffffffffffffffffffffffffffffff168273ffffffffffffffffffffffffffffffffffffffff160361140b57816040517f5b08ba180000000000000000000000000000000000000000000000000000000081526004016114029190611f3c565b60405180910390fd5b8060055f8573ffffffffffffffffffffffffffffffffffffffff1673ffffffffffffffffffffffffffffffffffffffff1681526020019081526020015f205f8473ffffffffffffffffffffffffffffffffffffffff1673ffffffffffffffffffffffffffffffffffffffff1681526020019081526020015f205f6101000a81548160ff0219169083151502179055508173ffffffffffffffffffffffffffffffffffffffff168373ffffffffffffffffffffffffffffffffffffffff167f17307eab39ab6107e8899845ad3d59bd9653f200f220920489ca2b5937696c31836040516114f79190611ddc565b60405180910390a3505050565b5f8373ffffffffffffffffffffffffffffffffffffffff163b11156116b0578273ffffffffffffffffffffffffffffffffffffffff1663150b7a02611547610ee0565b8685856040518563ffffffff1660e01b81526004016115699493929190612a57565b6020604051808303815f875af19250505080156115a457506040513d601f19601f820116820180604052508101906115a19190612ab5565b60015b611625573d805f81146115d2576040519150601f19603f3d011682016040523d82523d5f602084013e6115d7565b606091505b505f81510361161d57836040517f64a0ae920000000000000000000000000000000000000000000000000000000081526004016116149190611f3c565b60405180910390fd5b805181602001fd5b63150b7a0260e01b7bffffffffffffffffffffffffffffffffffffffffffffffffffffffff1916817bffffffffffffffffffffffffffffffffffffffffffffffffffffffff1916146116ae57836040517f64a0ae920000000000000000000000000000000000000000000000000000000081526004016116a59190611f3c565b60405180910390fd5b505b50505050565b606060405180602001604052805f815250905090565b60606116d782610e21565b505f6116e16116b6565b90505f8151116116ff5760405180602001604052805f81525061172a565b8061170984611a56565b60405160200161171a929190612776565b6040516020818303038152906040525b915050919050565b5f7f01ffc9a7000000000000000000000000000000000000000000000000000000007bffffffffffffffffffffffffffffffffffffffffffffffffffffffff1916827bffffffffffffffffffffffffffffffffffffffffffffffffffffffff1916149050919050565b5f60025f8381526020019081526020015f205f9054906101000a900473ffffffffffffffffffffffffffffffffffffffff169050919050565b808061180c57505f73ffffffffffffffffffffffffffffffffffffffff168273ffffffffffffffffffffffffffffffffffffffff1614155b1561193e575f61181b84610e21565b90505f73ffffffffffffffffffffffffffffffffffffffff168373ffffffffffffffffffffffffffffffffffffffff161415801561188557508273ffffffffffffffffffffffffffffffffffffffff168173ffffffffffffffffffffffffffffffffffffffff1614155b801561189857506118968184610c2e565b155b156118da57826040517fa9fbf51f0000000000000000000000000000000000000000000000000000000081526004016118d19190611f3c565b60405180910390fd5b811561193c57838573ffffffffffffffffffffffffffffffffffffffff168273ffffffffffffffffffffffffffffffffffffffff167f8c5be1e5ebec7d5bd14f71427d1e84f3dd0314c0f7b2291e5b200ac8c7c3b92560405160405180910390a45b505b8360045f8581526020019081526020015f205f6101000a81548173ffffffffffffffffffffffffffffffffffffffff021916908373ffffffffffffffffffffffffffffffffffffffff16021790555050505050565b61199e838383611b20565b611a51575f73ffffffffffffffffffffffffffffffffffffffff168373ffffffffffffffffffffffffffffffffffffffff1603611a1257806040517f7e273289000000000000000000000000000000000000000000000000000000008152600401611a0991906122c1565b60405180910390fd5b81816040517f177e802f000000000000000000000000000000000000000000000000000000008152600401611a48929190612ae0565b60405180910390fd5b505050565b60605f6001611a6484611be0565b0190505f8167ffffffffffffffff811115611a8257611a81611fc1565b5b6040519080825280601f01601f191660200182016040528015611ab45781602001600182028036833780820191505090505b5090505f82602001820190505b600115611b15578080600190039150507f3031323334353637383961626364656600000000000000000000000000000000600a86061a8153600a8581611b0a57611b09612b07565b5b0494505f8503611ac1575b819350505050919050565b5f8073ffffffffffffffffffffffffffffffffffffffff168373ffffffffffffffffffffffffffffffffffffffff1614158015611bd757508273ffffffffffffffffffffffffffffffffffffffff168473ffffffffffffffffffffffffffffffffffffffff161480611b985750611b978484610c2e565b5b80611bd657508273ffffffffffffffffffffffffffffffffffffffff16611bbe83610ea7565b73ffffffffffffffffffffffffffffffffffffffff16145b5b90509392505050565b5f805f90507a184f03e93ff9f4daa797ed6e38ed64bf6a1f0100000000000000008310611c3c577a184f03e93ff9f4daa797ed6e38ed64bf6a1f0100000000000000008381611c3257611c31612b07565b5b0492506040810190505b6d04ee2d6d415b85acef81000000008310611c79576d04ee2d6d415b85acef81000000008381611c6f57611c6e612b07565b5b0492506020810190505b662386f26fc100008310611ca857662386f26fc100008381611c9e57611c9d612b07565b5b0492506010810190505b6305f5e1008310611cd1576305f5e1008381611cc757611cc6612b07565b5b0492506008810190505b6127108310611cf6576127108381611cec57611ceb612b07565b5b0492506004810190505b60648310611d195760648381611d0f57611d0e612b07565b5b0492506002810190505b600a8310611d28576001810190505b80915050919050565b5f604051905090565b5f80fd5b5f80fd5b5f7fffffffff0000000000000000000000000000000000000000000000000000000082169050919050565b611d7681611d42565b8114611d80575f80fd5b50565b5f81359050611d9181611d6d565b92915050565b5f60208284031215611dac57611dab611d3a565b5b5f611db984828501611d83565b91505092915050565b5f8115159050919050565b611dd681611dc2565b82525050565b5f602082019050611def5f830184611dcd565b92915050565b5f81519050919050565b5f82825260208201905092915050565b5f5b83811015611e2c578082015181840152602081019050611e11565b5f8484015250505050565b5f601f19601f8301169050919050565b5f611e5182611df5565b611e5b8185611dff565b9350611e6b818560208601611e0f565b611e7481611e37565b840191505092915050565b5f6020820190508181035f830152611e978184611e47565b905092915050565b5f819050919050565b611eb181611e9f565b8114611ebb575f80fd5b50565b5f81359050611ecc81611ea8565b92915050565b5f60208284031215611ee757611ee6611d3a565b5b5f611ef484828501611ebe565b91505092915050565b5f73ffffffffffffffffffffffffffffffffffffffff82169050919050565b5f611f2682611efd565b9050919050565b611f3681611f1c565b82525050565b5f602082019050611f4f5f830184611f2d565b92915050565b611f5e81611f1c565b8114611f68575f80fd5b50565b5f81359050611f7981611f55565b92915050565b5f8060408385031215611f9557611f94611d3a565b5b5f611fa285828601611f6b565b9250506020611fb385828601611ebe565b9150509250929050565b5f80fd5b7f4e487b71000000000000000000000000000000000000000000000000000000005f52604160045260245ffd5b611ff782611e37565b810181811067ffffffffffffffff8211171561201657612015611fc1565b5b80604052505050565b5f612028611d31565b90506120348282611fee565b919050565b5f67ffffffffffffffff82111561205357612052611fc1565b5b602082029050602081019050919050565b5f80fd5b5f80fd5b5f67ffffffffffffffff82111561208657612085611fc1565b5b61208f82611e37565b9050602081019050919050565b828183375f83830152505050565b5f6120bc6120b78461206c565b61201f565b9050828152602081018484840111156120d8576120d7612068565b5b6120e384828561209c565b509392505050565b5f82601f8301126120ff576120fe611fbd565b5b813561210f8482602086016120aa565b91505092915050565b5f61212a61212584612039565b61201f565b9050808382526020820190506020840283018581111561214d5761214c612064565b5b835b8181101561219457803567ffffffffffffffff81111561217257612171611fbd565b5b80860161217f89826120eb565b8552602085019450505060208101905061214f565b5050509392505050565b5f82601f8301126121b2576121b1611fbd565b5b81356121c2848260208601612118565b91505092915050565b5f805f606084860312156121e2576121e1611d3a565b5b5f6121ef86828701611f6b565b935050602061220086828701611ebe565b925050604084013567ffffffffffffffff81111561222157612220611d3e565b5b61222d8682870161219e565b9150509250925092565b5f805f6060848603121561224e5761224d611d3a565b5b5f61225b86828701611f6b565b935050602061226c86828701611f6b565b925050604061227d86828701611ebe565b9150509250925092565b5f6020828403121561229c5761229b611d3a565b5b5f6122a984828501611f6b565b91505092915050565b6122bb81611e9f565b82525050565b5f6020820190506122d45f8301846122b2565b92915050565b6122e381611dc2565b81146122ed575f80fd5b50565b5f813590506122fe816122da565b92915050565b5f806040838503121561231a57612319611d3a565b5b5f61232785828601611f6b565b9250506020612338858286016122f0565b9150509250929050565b5f67ffffffffffffffff82111561235c5761235b611fc1565b5b61236582611e37565b9050602081019050919050565b5f61238461237f84612342565b61201f565b9050828152602081018484840111156123a05761239f612068565b5b6123ab84828561209c565b509392505050565b5f82601f8301126123c7576123c6611fbd565b5b81356123d7848260208601612372565b91505092915050565b5f805f80608085870312156123f8576123f7611d3a565b5b5f61240587828801611f6b565b945050602061241687828801611f6b565b935050604061242787828801611ebe565b925050606085013567ffffffffffffffff81111561244857612447611d3e565b5b612454878288016123b3565b91505092959194509250565b5f806040838503121561247657612475611d3a565b5b5f61248385828601611f6b565b925050602061249485828601611f6b565b9150509250929050565b7f4e487b71000000000000000000000000000000000000000000000000000000005f52602260045260245ffd5b5f60028204905060018216806124e257607f821691505b6020821081036124f5576124f461249e565b5b50919050565b7f54686520636f6e747261637420697320706175736564000000000000000000005f82015250565b5f61252f601683611dff565b915061253a826124fb565b602082019050919050565b5f6020820190508181035f83015261255c81612523565b9050919050565b7f4e6f742077686974656c6973746564206f72206f776e657200000000000000005f82015250565b5f612597601883611dff565b91506125a282612563565b602082019050919050565b5f6020820190508181035f8301526125c48161258b565b9050919050565b7f4e487b71000000000000000000000000000000000000000000000000000000005f52601160045260245ffd5b5f61260282611e9f565b915061260d83611e9f565b9250828201905080821115612625576126246125cb565b5b92915050565b7f4d617820737570706c79206578636565646564000000000000000000000000005f82015250565b5f61265f601383611dff565b915061266a8261262b565b602082019050919050565b5f6020820190508181035f83015261268c81612653565b9050919050565b7f4e487b71000000000000000000000000000000000000000000000000000000005f52603260045260245ffd5b5f6126ca82611e9f565b91507fffffffffffffffffffffffffffffffffffffffffffffffffffffffffffffffff82036126fc576126fb6125cb565b5b600182019050919050565b5f60608201905061271a5f830186611f2d565b61272760208301856122b2565b6127346040830184611f2d565b949350505050565b5f81905092915050565b5f61275082611df5565b61275a818561273c565b935061276a818560208601611e0f565b80840191505092915050565b5f6127818285612746565b915061278d8284612746565b91508190509392505050565b5f819050815f5260205f209050919050565b5f6020601f8301049050919050565b5f82821b905092915050565b5f600883026127f57fffffffffffffffffffffffffffffffffffffffffffffffffffffffffffffffff826127ba565b6127ff86836127ba565b95508019841693508086168417925050509392505050565b5f819050919050565b5f61283a61283561283084611e9f565b612817565b611e9f565b9050919050565b5f819050919050565b61285383612820565b61286761285f82612841565b8484546127c6565b825550505050565b5f90565b61287b61286f565b61288681848461284a565b505050565b5b818110156128a95761289e5f82612873565b60018101905061288c565b5050565b601f8211156128ee576128bf81612799565b6128c8846127ab565b810160208510156128d7578190505b6128eb6128e3856127ab565b83018261288b565b50505b505050565b5f82821c905092915050565b5f61290e5f19846008026128f3565b1980831691505092915050565b5f61292683836128ff565b9150826002028217905092915050565b61293f82611df5565b67ffffffffffffffff81111561295857612957611fc1565b5b61296282546124cb565b61296d8282856128ad565b5f60209050601f83116001811461299e575f841561298c578287015190505b612996858261291b565b8655506129fd565b601f1984166129ac86612799565b5f5b828110156129d3578489015182556001820191506020850194506020810190506129ae565b868310156129f057848901516129ec601f8916826128ff565b8355505b6001600288020188555050505b505050505050565b5f81519050919050565b5f82825260208201905092915050565b5f612a2982612a05565b612a338185612a0f565b9350612a43818560208601611e0f565b612a4c81611e37565b840191505092915050565b5f608082019050612a6a5f830187611f2d565b612a776020830186611f2d565b612a8460408301856122b2565b8181036060830152612a968184612a1f565b905095945050505050565b5f81519050612aaf81611d6d565b92915050565b5f60208284031215612aca57612ac9611d3a565b5b5f612ad784828501612aa1565b91505092915050565b5f604082019050612af35f830185611f2d565b612b0060208301846122b2565b9392505050565b7f4e487b71000000000000000000000000000000000000000000000000000000005f52601260045260245ffdfea26469706673582212203f2b4c3efdbc424237a009e9d65ff9289025fb2e77bf91dae9230a3eb45a7e1c64736f6c63430008150033",
  "immutableReferences": {},
  "source": "// SPDX-License-Identifier: MIT\r\npragma solidity ^0.8.0;\r\n\r\nimport \"@openzeppelin/contracts/token/ERC721/extensions/ERC721URIStorage.sol\";\r\nimport \"@openzeppelin/contracts/access/Ownable.sol\";\r\n\r\ncontract HalvingLottery is ERC721URIStorage, Ownable{\r\n    \r\n    uint256 public totalMinted;    \r\n    bool public pause;\r\n    mapping(address => bool) private whitelisted; \r\n    uint256 internal constant totalSupply = 200000;\r\n\r\n    constructor() ERC721(\"Halving Pass\", \"HP\")  Ownable(msg.sender){}\r\n\r\n    // function to pause minting\r\n    function Pause() public onlyOwner {\r\n        pause = true;\r\n    }\r\n\r\n    // function to unpause minting\r\n    function unpause() public onlyOwner {\r\n        pause = false;\r\n    }\r\n\r\n    // Function to whitelist addresses\r\n    function whitelistAddress(address _address) public onlyOwner {\r\n        whitelisted[_address] = true;\r\n    }\r\n\r\n\r\n    // Function to remove from whitelist\r\n    function removeFromWhitelist(address _address) public onlyOwner {\r\n        whitelisted[_address] = false;\r\n    }\r\n\r\n\r\n    // minting tokens on given address\r\n    function mint(address to, uint256 numberOfTokens, string[] memory uri) public {\r\n        require(!pause, \"The contract is paused\");\r\n        require(whitelisted[msg.sender] || msg.sender == owner(), \"Not whitelisted or owner\");\r\n        require(totalMinted + numberOfTokens <= totalSupply, \"Max supply exceeded\");\r\n\r\n        for (uint256 i = 0; i < numberOfTokens; i++) {\r\n            uint256 tokenId = totalMinted + 1;\r\n            _mint(to, tokenId);\r\n            _setTokenURI(tokenId, uri[i]);\r\n            totalMinted++;\r\n        }\r\n    }\r\n\r\n}\r\n",
  "sourcePath": "C:\\Users\\Lenovo\\Desktop\\Halving-Lottery\\contracts\\HalvingLottery.sol",
  "compiler": {
    "name": "solc",
    "version": "0.8.21+commit.d9974bed.Emscripten.clang"
  },
  "schemaVersion": "3.4.16",
  "updatedAt": "2024-01-31T17:46:53.415Z",
  "devdoc": {
    "errors": {
      "ERC721IncorrectOwner(address,uint256,address)": [
        {
          "details": "Indicates an error related to the ownership over a particular token. Used in transfers.",
          "params": {
            "owner": "Address of the current owner of a token.",
            "sender": "Address whose tokens are being transferred.",
            "tokenId": "Identifier number of a token."
          }
        }
      ],
      "ERC721InsufficientApproval(address,uint256)": [
        {
          "details": "Indicates a failure with the `operator`s approval. Used in transfers.",
          "params": {
            "operator": "Address that may be allowed to operate on tokens without being their owner.",
            "tokenId": "Identifier number of a token."
          }
        }
      ],
      "ERC721InvalidApprover(address)": [
        {
          "details": "Indicates a failure with the `approver` of a token to be approved. Used in approvals.",
          "params": {
            "approver": "Address initiating an approval operation."
          }
        }
      ],
      "ERC721InvalidOperator(address)": [
        {
          "details": "Indicates a failure with the `operator` to be approved. Used in approvals.",
          "params": {
            "operator": "Address that may be allowed to operate on tokens without being their owner."
          }
        }
      ],
      "ERC721InvalidOwner(address)": [
        {
          "details": "Indicates that an address can't be an owner. For example, `address(0)` is a forbidden owner in EIP-20. Used in balance queries.",
          "params": {
            "owner": "Address of the current owner of a token."
          }
        }
      ],
      "ERC721InvalidReceiver(address)": [
        {
          "details": "Indicates a failure with the token `receiver`. Used in transfers.",
          "params": {
            "receiver": "Address to which tokens are being transferred."
          }
        }
      ],
      "ERC721InvalidSender(address)": [
        {
          "details": "Indicates a failure with the token `sender`. Used in transfers.",
          "params": {
            "sender": "Address whose tokens are being transferred."
          }
        }
      ],
      "ERC721NonexistentToken(uint256)": [
        {
          "details": "Indicates a `tokenId` whose `owner` is the zero address.",
          "params": {
            "tokenId": "Identifier number of a token."
          }
        }
      ],
      "OwnableInvalidOwner(address)": [
        {
          "details": "The owner is not a valid owner account. (eg. `address(0)`)"
        }
      ],
      "OwnableUnauthorizedAccount(address)": [
        {
          "details": "The caller account is not authorized to perform an operation."
        }
      ]
    },
    "events": {
      "Approval(address,address,uint256)": {
        "details": "Emitted when `owner` enables `approved` to manage the `tokenId` token."
      },
      "ApprovalForAll(address,address,bool)": {
        "details": "Emitted when `owner` enables or disables (`approved`) `operator` to manage all of its assets."
      },
      "BatchMetadataUpdate(uint256,uint256)": {
        "details": "This event emits when the metadata of a range of tokens is changed. So that the third-party platforms such as NFT market could timely update the images and related attributes of the NFTs."
      },
      "MetadataUpdate(uint256)": {
        "details": "This event emits when the metadata of a token is changed. So that the third-party platforms such as NFT market could timely update the images and related attributes of the NFT."
      },
      "Transfer(address,address,uint256)": {
        "details": "Emitted when `tokenId` token is transferred from `from` to `to`."
      }
    },
    "kind": "dev",
    "methods": {
      "approve(address,uint256)": {
        "details": "See {IERC721-approve}."
      },
      "balanceOf(address)": {
        "details": "See {IERC721-balanceOf}."
      },
      "getApproved(uint256)": {
        "details": "See {IERC721-getApproved}."
      },
      "isApprovedForAll(address,address)": {
        "details": "See {IERC721-isApprovedForAll}."
      },
      "name()": {
        "details": "See {IERC721Metadata-name}."
      },
      "owner()": {
        "details": "Returns the address of the current owner."
      },
      "ownerOf(uint256)": {
        "details": "See {IERC721-ownerOf}."
      },
      "renounceOwnership()": {
        "details": "Leaves the contract without owner. It will not be possible to call `onlyOwner` functions. Can only be called by the current owner. NOTE: Renouncing ownership will leave the contract without an owner, thereby disabling any functionality that is only available to the owner."
      },
      "safeTransferFrom(address,address,uint256)": {
        "details": "See {IERC721-safeTransferFrom}."
      },
      "safeTransferFrom(address,address,uint256,bytes)": {
        "details": "See {IERC721-safeTransferFrom}."
      },
      "setApprovalForAll(address,bool)": {
        "details": "See {IERC721-setApprovalForAll}."
      },
      "supportsInterface(bytes4)": {
        "details": "See {IERC165-supportsInterface}"
      },
      "symbol()": {
        "details": "See {IERC721Metadata-symbol}."
      },
      "tokenURI(uint256)": {
        "details": "See {IERC721Metadata-tokenURI}."
      },
      "transferFrom(address,address,uint256)": {
        "details": "See {IERC721-transferFrom}."
      },
      "transferOwnership(address)": {
        "details": "Transfers ownership of the contract to a new account (`newOwner`). Can only be called by the current owner."
      }
    },
    "version": 1
  },
  "userdoc": {
    "kind": "user",
    "methods": {},
    "version": 1
  }
}